{
  "abi": [
    {
      "inputs": [],
      "name": "StreamStillLive",
      "type": "error"
    },
    {
      "inputs": [],
      "name": "Unauthorized",
      "type": "error"
    },
    {
      "inputs": [],
      "name": "ZeroAddressSender",
      "type": "error"
    },
    {
      "inputs": [],
      "name": "ZeroBalance",
      "type": "error"
    },
    {
      "inputs": [
        {
          "internalType": "uint256",
          "name": "streamId",
          "type": "uint256"
        },
        {
          "internalType": "address",
          "name": "_address",
          "type": "address"
        }
      ],
      "name": "balanceOf",
      "outputs": [
        {
          "internalType": "uint256",
          "name": "",
          "type": "uint256"
        }
      ],
      "stateMutability": "view",
      "type": "function"
    },
    {
      "inputs": [],
      "name": "fetchAllStreams",
      "outputs": [
        {
          "components": [
            {
              "internalType": "uint256",
              "name": "id",
              "type": "uint256"
            },
            {
              "internalType": "address",
              "name": "sender",
              "type": "address"
            },
            {
              "internalType": "address",
              "name": "receiver",
              "type": "address"
            },
            {
              "internalType": "uint256",
              "name": "balance",
              "type": "uint256"
            },
            {
              "internalType": "uint256",
              "name": "withdrawnBalance",
              "type": "uint256"
            },
            {
              "internalType": "uint256",
              "name": "paymentPerBlock",
              "type": "uint256"
            },
            {
              "components": [
                {
                  "internalType": "uint256",
                  "name": "startBlock",
                  "type": "uint256"
                },
                {
                  "internalType": "uint256",
                  "name": "stopBlock",
                  "type": "uint256"
                }
              ],
              "internalType": "struct SolidStreaming.Timeframe",
              "name": "timeframe",
              "type": "tuple"
            }
          ],
          "internalType": "struct SolidStreaming.Stream[]",
          "name": "",
          "type": "tuple[]"
        }
      ],
      "stateMutability": "view",
      "type": "function"
    },
    {
      "inputs": [],
      "name": "nonce",
      "outputs": [
        {
          "internalType": "uint256",
          "name": "",
          "type": "uint256"
        }
      ],
      "stateMutability": "view",
      "type": "function"
    },
    {
      "inputs": [
        {
          "internalType": "address",
          "name": "receiver",
          "type": "address"
        },
        {
          "components": [
            {
              "internalType": "uint256",
              "name": "startBlock",
              "type": "uint256"
            },
            {
              "internalType": "uint256",
              "name": "stopBlock",
              "type": "uint256"
            }
          ],
          "internalType": "struct SolidStreaming.Timeframe",
          "name": "timeframe",
          "type": "tuple"
        },
        {
          "internalType": "uint256",
          "name": "paymentPerBlock",
          "type": "uint256"
        }
      ],
      "name": "start",
      "outputs": [
        {
          "internalType": "uint256",
          "name": "",
          "type": "uint256"
        }
      ],
      "stateMutability": "payable",
      "type": "function"
    },
    {
      "inputs": [
        {
          "internalType": "uint256",
          "name": "",
          "type": "uint256"
        }
      ],
      "name": "streamArray",
      "outputs": [
        {
          "internalType": "uint256",
          "name": "id",
          "type": "uint256"
        },
        {
          "internalType": "address",
          "name": "sender",
          "type": "address"
        },
        {
          "internalType": "address",
          "name": "receiver",
          "type": "address"
        },
        {
          "internalType": "uint256",
          "name": "balance",
          "type": "uint256"
        },
        {
          "internalType": "uint256",
          "name": "withdrawnBalance",
          "type": "uint256"
        },
        {
          "internalType": "uint256",
          "name": "paymentPerBlock",
          "type": "uint256"
        },
        {
          "components": [
            {
              "internalType": "uint256",
              "name": "startBlock",
              "type": "uint256"
            },
            {
              "internalType": "uint256",
              "name": "stopBlock",
              "type": "uint256"
            }
          ],
          "internalType": "struct SolidStreaming.Timeframe",
          "name": "timeframe",
          "type": "tuple"
        }
      ],
      "stateMutability": "view",
      "type": "function"
    },
    {
      "inputs": [
        {
          "internalType": "uint256",
          "name": "",
          "type": "uint256"
        }
      ],
      "name": "streams",
      "outputs": [
        {
          "internalType": "uint256",
          "name": "id",
          "type": "uint256"
        },
        {
          "internalType": "address",
          "name": "sender",
          "type": "address"
        },
        {
          "internalType": "address",
          "name": "receiver",
          "type": "address"
        },
        {
          "internalType": "uint256",
          "name": "balance",
          "type": "uint256"
        },
        {
          "internalType": "uint256",
          "name": "withdrawnBalance",
          "type": "uint256"
        },
        {
          "internalType": "uint256",
          "name": "paymentPerBlock",
          "type": "uint256"
        },
        {
          "components": [
            {
              "internalType": "uint256",
              "name": "startBlock",
              "type": "uint256"
            },
            {
              "internalType": "uint256",
              "name": "stopBlock",
              "type": "uint256"
            }
          ],
          "internalType": "struct SolidStreaming.Timeframe",
          "name": "timeframe",
          "type": "tuple"
        }
      ],
      "stateMutability": "view",
      "type": "function"
    },
    {
      "inputs": [
        {
          "internalType": "uint256",
          "name": "streamId",
          "type": "uint256"
        }
      ],
      "name": "withdraw",
      "outputs": [],
      "stateMutability": "payable",
      "type": "function"
    }
  ],
  "bytecode": {
    "object": "0x608060405260016000556001805534801561001957600080fd5b50610a09806100296000396000f3fe6080604052600436106100705760003560e01c80636945ab851161004e5780636945ab851461014b578063affed0e01461015e578063d93f97e514610174578063f8ffd5b41461019457600080fd5b80632e1a7d4d146100755780633656eec21461008a57806364d60d91146100bd575b600080fd5b61008861008336600461079b565b6101b6565b005b34801561009657600080fd5b506100aa6100a53660046107d0565b6102c6565b6040519081526020015b60405180910390f35b3480156100c957600080fd5b506101386100d836600461079b565b60026020818152600092835260409283902080546001820154938201546003830154600484015460058501548851808a01909952600686015489526007909501549588019590955291956001600160a01b03958616959091169391929087565b6040516100b497969594939291906107fc565b6100aa610159366004610853565b6103fd565b34801561016a57600080fd5b506100aa60015481565b34801561018057600080fd5b5061013861018f36600461079b565b61062b565b3480156101a057600080fd5b506101a961069f565b6040516100b491906108dd565b600081815260026020819052604090912001546001600160a01b031633146101f0576040516282b42960e81b815260040160405180910390fd5b60006101fc82336102c6565b90508060000361021f5760405163334ab3f560e11b815260040160405180910390fd5b60008281526002602052604080822060040180548401905551339083908381818185875af1925050503d8060008114610274576040519150601f19603f3d011682016040523d82523d6000602084013e610279565b606091505b50509050806102c15760405162461bcd60e51b815260206004820152601060248201526f2bb4ba34323930bb903330b4b632b21760811b604482015260640160405180910390fd5b505050565b6000828152600260208181526040808420815160e0810183528154815260018201546001600160a01b03908116828601908152958301548116828501526003830154606083015260048301546080830152600583015460a08301528351808501909452600683015484526007909201549383019390935260c08301919091529151909116610367576040516303671b5d60e51b815260040160405180910390fd5b60006103768260c0015161075f565b905060008260a001518261038a9190610990565b905082604001516001600160a01b0316856001600160a01b0316036103c25760808301516103b890826109a7565b93505050506103f7565b82602001516001600160a01b0316856001600160a01b0316036103ef578083606001516103b891906109a7565b600093505050505b92915050565b6040805160e081018252600080548083523360208085019182526001600160a01b0389811686880190815234606088019081526080880187815260a089018b815260c08a018d815297895260028087529a89208a5181558751600180830180546001600160a01b0319908116938a1693909317905586519d8301805483169e89169e909e17909d55845160038084019190915584516004840155835160058401558a518051600685015589015160079093019290925581549c8d018255908a528a517fc2575a0e9e593c00f959f8c92f12db2869c3395a3b0502d05e2516446f71f85b6008909d029c8d015596517fc2575a0e9e593c00f959f8c92f12db2869c3395a3b0502d05e2516446f71f85c8c018054891691871691909117905592517fc2575a0e9e593c00f959f8c92f12db2869c3395a3b0502d05e2516446f71f85d8b01805490971694169390931790945592517fc2575a0e9e593c00f959f8c92f12db2869c3395a3b0502d05e2516446f71f85e880155517fc2575a0e9e593c00f959f8c92f12db2869c3395a3b0502d05e2516446f71f85f87015590517fc2575a0e9e593c00f959f8c92f12db2869c3395a3b0502d05e2516446f71f860860155905180517fc2575a0e9e593c00f959f8c92f12db2869c3395a3b0502d05e2516446f71f86186015501517fc2575a0e9e593c00f959f8c92f12db2869c3395a3b0502d05e2516446f71f862909301929092558154828061061e836109ba565b9091555095945050505050565b6003818154811061063b57600080fd5b60009182526020918290206008909102018054600182015460028301546003840154600485015460058601546040805180820190915260068801548152600790970154978701979097529396506001600160a01b0392831695919092169391929187565b60606003805480602002602001604051908101604052809291908181526020016000905b828210156107565760008481526020908190206040805160e08101825260088602909201805483526001808201546001600160a01b0390811685870152600283015416848401526003820154606085015260048201546080850152600582015460a08501528251808401909352600682015483526007909101548285015260c083019190915290835290920191016106c3565b50505050905090565b8051600090431161077257506000919050565b816020015143101561078a5781516103f790436109a7565b815160208301516103f791906109a7565b6000602082840312156107ad57600080fd5b5035919050565b80356001600160a01b03811681146107cb57600080fd5b919050565b600080604083850312156107e357600080fd5b823591506107f3602084016107b4565b90509250929050565b8781526001600160a01b03878116602083015286166040820152606081018590526080810184905260a08101839052610100810161084760c083018480518252602090810151910152565b98975050505050505050565b6000806000838503608081121561086957600080fd5b610872856107b4565b93506040601f198201121561088657600080fd5b506040516040810181811067ffffffffffffffff821117156108b857634e487b7160e01b600052604160045260246000fd5b6040908152602086810135835290860135908201529295929450505060609091013590565b602080825282518282018190526000919060409081850190868401855b8281101561096d57815180518552868101516001600160a01b0390811688870152868201511686860152606080820151908601526080808201519086015260a0808201519086015260c0908101518051918601919091526020015160e085015261010090930192908501906001016108fa565b5091979650505050505050565b634e487b7160e01b600052601160045260246000fd5b80820281158282048414176103f7576103f761097a565b818103818111156103f7576103f761097a565b6000600182016109cc576109cc61097a565b506001019056fea26469706673582212202b784ee141dee5c5079753bf85508bc4dd91e1a1e409cd2ce4d4744d65679a1964736f6c63430008120033",
    "linkReferences": {}
  },
  "methodIdentifiers": {
    "balanceOf(uint256,address)": "3656eec2",
    "fetchAllStreams()": "f8ffd5b4",
    "nonce()": "affed0e0",
    "start(address,(uint256,uint256),uint256)": "6945ab85",
    "streamArray(uint256)": "d93f97e5",
    "streams(uint256)": "64d60d91",
    "withdraw(uint256)": "2e1a7d4d"
  },
  "id": 1
}