{
  "abi": [
    {
      "inputs": [],
      "stateMutability": "payable",
      "type": "constructor"
    },
    {
      "inputs": [],
      "name": "StreamNotFound",
      "type": "error"
    },
    {
      "inputs": [],
      "name": "StreamStillActive",
      "type": "error"
    },
    {
      "inputs": [],
      "name": "Unauthorized",
      "type": "error"
    },
    {
      "anonymous": false,
      "inputs": [
        {
          "indexed": true,
          "internalType": "uint256",
          "name": "streamId",
          "type": "uint256"
        },
        {
          "indexed": false,
          "internalType": "uint256",
          "name": "amount",
          "type": "uint256"
        }
      ],
      "name": "ExcessWithdrawn",
      "type": "event"
    },
    {
      "anonymous": false,
      "inputs": [
        {
          "indexed": true,
          "internalType": "uint256",
          "name": "streamId",
          "type": "uint256"
        },
        {
          "indexed": false,
          "internalType": "uint256",
          "name": "amount",
          "type": "uint256"
        }
      ],
      "name": "FundsWithdrawn",
      "type": "event"
    },
    {
      "anonymous": false,
      "inputs": [
        {
          "components": [
            {
              "internalType": "address",
              "name": "sender",
              "type": "address"
            },
            {
              "internalType": "address",
              "name": "recipient",
              "type": "address"
            },
            {
              "internalType": "contract ERC20",
              "name": "token",
              "type": "address"
            },
            {
              "internalType": "uint256",
              "name": "balance",
              "type": "uint256"
            },
            {
              "internalType": "uint256",
              "name": "withdrawnBalance",
              "type": "uint256"
            },
            {
              "internalType": "uint256",
              "name": "paymentPerBlock",
              "type": "uint256"
            },
            {
              "components": [
                {
                  "internalType": "uint256",
                  "name": "startBlock",
                  "type": "uint256"
                },
                {
                  "internalType": "uint256",
                  "name": "stopBlock",
                  "type": "uint256"
                }
              ],
              "internalType": "struct SolidStreaming.Timeframe",
              "name": "timeframe",
              "type": "tuple"
            }
          ],
          "indexed": false,
          "internalType": "struct SolidStreaming.Stream",
          "name": "stream",
          "type": "tuple"
        }
      ],
      "name": "StreamCreated",
      "type": "event"
    },
    {
      "anonymous": false,
      "inputs": [
        {
          "indexed": true,
          "internalType": "uint256",
          "name": "streamId",
          "type": "uint256"
        },
        {
          "indexed": false,
          "internalType": "uint256",
          "name": "paymentPerBlock",
          "type": "uint256"
        },
        {
          "components": [
            {
              "internalType": "uint256",
              "name": "startBlock",
              "type": "uint256"
            },
            {
              "internalType": "uint256",
              "name": "stopBlock",
              "type": "uint256"
            }
          ],
          "indexed": false,
          "internalType": "struct SolidStreaming.Timeframe",
          "name": "timeframe",
          "type": "tuple"
        }
      ],
      "name": "StreamDetailsUpdated",
      "type": "event"
    },
    {
      "anonymous": false,
      "inputs": [
        {
          "indexed": true,
          "internalType": "uint256",
          "name": "streamId",
          "type": "uint256"
        },
        {
          "indexed": false,
          "internalType": "uint256",
          "name": "amount",
          "type": "uint256"
        }
      ],
      "name": "StreamRefueled",
      "type": "event"
    },
    {
      "inputs": [],
      "name": "UPDATE_DETAILS_HASH",
      "outputs": [
        {
          "internalType": "bytes32",
          "name": "",
          "type": "bytes32"
        }
      ],
      "stateMutability": "view",
      "type": "function"
    },
    {
      "inputs": [
        {
          "internalType": "uint256",
          "name": "streamId",
          "type": "uint256"
        },
        {
          "internalType": "address",
          "name": "who",
          "type": "address"
        }
      ],
      "name": "balanceOf",
      "outputs": [
        {
          "internalType": "uint256",
          "name": "",
          "type": "uint256"
        }
      ],
      "stateMutability": "view",
      "type": "function"
    },
    {
      "inputs": [],
      "name": "domainSeparator",
      "outputs": [
        {
          "internalType": "bytes32",
          "name": "",
          "type": "bytes32"
        }
      ],
      "stateMutability": "view",
      "type": "function"
    },
    {
      "inputs": [
        {
          "internalType": "uint256",
          "name": "",
          "type": "uint256"
        }
      ],
      "name": "getStream",
      "outputs": [
        {
          "internalType": "address",
          "name": "sender",
          "type": "address"
        },
        {
          "internalType": "address",
          "name": "recipient",
          "type": "address"
        },
        {
          "internalType": "contract ERC20",
          "name": "token",
          "type": "address"
        },
        {
          "internalType": "uint256",
          "name": "balance",
          "type": "uint256"
        },
        {
          "internalType": "uint256",
          "name": "withdrawnBalance",
          "type": "uint256"
        },
        {
          "internalType": "uint256",
          "name": "paymentPerBlock",
          "type": "uint256"
        },
        {
          "components": [
            {
              "internalType": "uint256",
              "name": "startBlock",
              "type": "uint256"
            },
            {
              "internalType": "uint256",
              "name": "stopBlock",
              "type": "uint256"
            }
          ],
          "internalType": "struct SolidStreaming.Timeframe",
          "name": "timeframe",
          "type": "tuple"
        }
      ],
      "stateMutability": "view",
      "type": "function"
    },
    {
      "inputs": [],
      "name": "nonce",
      "outputs": [
        {
          "internalType": "uint256",
          "name": "",
          "type": "uint256"
        }
      ],
      "stateMutability": "view",
      "type": "function"
    },
    {
      "inputs": [
        {
          "internalType": "uint256",
          "name": "streamId",
          "type": "uint256"
        },
        {
          "internalType": "uint256",
          "name": "amount",
          "type": "uint256"
        }
      ],
      "name": "refuel",
      "outputs": [],
      "stateMutability": "payable",
      "type": "function"
    },
    {
      "inputs": [
        {
          "internalType": "uint256",
          "name": "streamId",
          "type": "uint256"
        }
      ],
      "name": "refund",
      "outputs": [],
      "stateMutability": "payable",
      "type": "function"
    },
    {
      "inputs": [
        {
          "internalType": "address",
          "name": "recipient",
          "type": "address"
        },
        {
          "internalType": "uint256",
          "name": "initialBalance",
          "type": "uint256"
        },
        {
          "components": [
            {
              "internalType": "uint256",
              "name": "startBlock",
              "type": "uint256"
            },
            {
              "internalType": "uint256",
              "name": "stopBlock",
              "type": "uint256"
            }
          ],
          "internalType": "struct SolidStreaming.Timeframe",
          "name": "timeframe",
          "type": "tuple"
        },
        {
          "internalType": "uint256",
          "name": "paymentPerBlock",
          "type": "uint256"
        }
      ],
      "name": "streamEth",
      "outputs": [
        {
          "internalType": "uint256",
          "name": "",
          "type": "uint256"
        }
      ],
      "stateMutability": "payable",
      "type": "function"
    },
    {
      "inputs": [
        {
          "internalType": "address",
          "name": "recipient",
          "type": "address"
        },
        {
          "internalType": "contract ERC20",
          "name": "token",
          "type": "address"
        },
        {
          "internalType": "uint256",
          "name": "initialBalance",
          "type": "uint256"
        },
        {
          "components": [
            {
              "internalType": "uint256",
              "name": "startBlock",
              "type": "uint256"
            },
            {
              "internalType": "uint256",
              "name": "stopBlock",
              "type": "uint256"
            }
          ],
          "internalType": "struct SolidStreaming.Timeframe",
          "name": "timeframe",
          "type": "tuple"
        },
        {
          "internalType": "uint256",
          "name": "paymentPerBlock",
          "type": "uint256"
        }
      ],
      "name": "streamTo",
      "outputs": [
        {
          "internalType": "uint256",
          "name": "",
          "type": "uint256"
        }
      ],
      "stateMutability": "payable",
      "type": "function"
    },
    {
      "inputs": [
        {
          "internalType": "uint256",
          "name": "streamId",
          "type": "uint256"
        },
        {
          "internalType": "uint256",
          "name": "paymentPerBlock",
          "type": "uint256"
        },
        {
          "components": [
            {
              "internalType": "uint256",
              "name": "startBlock",
              "type": "uint256"
            },
            {
              "internalType": "uint256",
              "name": "stopBlock",
              "type": "uint256"
            }
          ],
          "internalType": "struct SolidStreaming.Timeframe",
          "name": "timeframe",
          "type": "tuple"
        },
        {
          "components": [
            {
              "internalType": "uint8",
              "name": "v",
              "type": "uint8"
            },
            {
              "internalType": "bytes32",
              "name": "r",
              "type": "bytes32"
            },
            {
              "internalType": "bytes32",
              "name": "s",
              "type": "bytes32"
            }
          ],
          "internalType": "struct SolidStreaming.Signature",
          "name": "sig",
          "type": "tuple"
        }
      ],
      "name": "updateDetails",
      "outputs": [],
      "stateMutability": "payable",
      "type": "function"
    },
    {
      "inputs": [
        {
          "internalType": "uint256",
          "name": "streamId",
          "type": "uint256"
        }
      ],
      "name": "withdraw",
      "outputs": [],
      "stateMutability": "payable",
      "type": "function"
    }
  ],
  "bytecode": {
    "object": "0x60016000818155818055600e60a09081526d536f6c696453747265616d696e6760901b60c05260e092909252603160f81b610100527f8b73c3c69bb8fe3d512ecc4cf759cc79239f7b179b0ffacaa9a75d522b39400f6101409081527f0d05cd6db270dc5c5d044944f629390591f822832f7e51fb0d39a4bd45760dcb610160527fc89efdaa54c0f20c7adf612882df0950f5a951637e0307cdcb4c672f298b8bc661018052466101a052306101c0526101208390526101e060405291909120608081905290610ef3906100e490396000818161023a015261089a0152610ef36000f3fe60806040526004361061009c5760003560e01c80633656eec2116100645780633656eec21461013b5780634a35de231461015b578063894e9a0d1461016e5780639b386933146101ff578063affed0e014610212578063f698da251461022857600080fd5b80631463caa5146100a15780631d12189b146100cc578063278ecde1146101005780632e1a7d4d14610115578063344c8e4314610128575b600080fd5b6100b96100af366004610b9a565b6000949350505050565b6040519081526020015b60405180910390f35b3480156100d857600080fd5b506100b97fa10cd4cb00add4d4726811705a7c4165b449456352c3bc9ba4801838090d97ea81565b61011361010e366004610be1565b61025c565b005b610113610123366004610be1565b6103be565b610113610136366004610bfa565b610451565b34801561014757600080fd5b506100b9610156366004610c1c565b610527565b6100b9610169366004610c4c565b61065b565b34801561017a57600080fd5b506101ec610189366004610be1565b60026020818152600092835260409283902080546001820154938201546003830154600484015460058501548851808a0190995260068601548952600790950154958801959095526001600160a01b039283169695831695919092169391929087565b6040516100c39796959493929190610ca6565b61011361020d366004610cff565b6107f6565b34801561021e57600080fd5b506100b960015481565b34801561023457600080fd5b506100b97f000000000000000000000000000000000000000000000000000000000000000081565b6000818152600260205260409020546001600160a01b03163314610292576040516282b42960e81b815260040160405180910390fd5b6000818152600260205260409020600701544310156102c4576040516316795f3b60e21b815260040160405180910390fd5b60006102d08233610527565b9050806002600084815260200190815260200160002060030160008282546102f89190610dc3565b909155505060405181815282907f586a2671b4947084345c73f8a17f85c1c5f7ed0638096054adc5ebab41ad048a906020015b60405180910390a26000828152600260208190526040918290200154905163a9059cbb60e01b8152336004820152602481018390526001600160a01b039091169063a9059cbb906044015b6020604051808303816000875af1158015610395573d6000803e3d6000fd5b505050506040513d601f19601f820116820180604052508101906103b99190610dd6565b505050565b6000818152600260205260409020600101546001600160a01b031633146103f7576040516282b42960e81b815260040160405180910390fd5b60006104038233610527565b600083815260026020526040908190206004018054830190555190915082907fd66662c0ded9e58fd31d5e44944bcfd07ffc15e6927ecc1382e7941cb7bd24c49061032b9084815260200190565b6000828152600260205260409020546001600160a01b03163314610487576040516282b42960e81b815260040160405180910390fd5b600082815260026020526040908190206003018054830190555182907f8b612364ac7c8f352f27e247dd867be7ac95d1b2acd946b4844f048b70b340c8906104d29084815260200190565b60405180910390a2600082815260026020819052604091829020015490516323b872dd60e01b8152336004820152306024820152604481018390526001600160a01b03909116906323b872dd90606401610376565b6000828152600260208181526040808420815160e08101835281546001600160a01b0390811682526001830154811682860152948201548516818401526003820154606082015260048201546080820152600582015460a08201528251808401909352600682015483526007909101549282019290925260c082015280519091166105c5576040516309e4397760e11b815260040160405180910390fd5b60006105d48260c00151610ae9565b905060008260a00151826105e89190610dff565b905082602001516001600160a01b0316856001600160a01b0316036106205760808301516106169082610dc3565b9350505050610655565b82600001516001600160a01b0316856001600160a01b03160361064d578083606001516106169190610dc3565b600093505050505b92915050565b6040805160e0810182523381526001600160a01b0387811660208301528616818301526060810185905260006080820181905260a0820184905260c0820185905291517fca92a74b0b9f1797641b138dee00d6d6f3087b413163d828511f57dd9bb12652906106cb908390610e16565b60405180910390a160008054815260026020818152604092839020845181546001600160a01b03199081166001600160a01b039283161783558684015160018401805483169184169190911790558686015194830180549091169482169490941790935560608501516003820155608085015160048083019190915560a0860151600583015560c0860151805160068401559092015160079091015591516323b872dd60e01b81523392810192909252306024830152604482018790528716906323b872dd906064016020604051808303816000875af11580156107b3573d6000803e3d6000fd5b505050506040513d601f19601f820116820180604052508101906107d79190610dd6565b506000805490806107e783610e86565b90915550979650505050505050565b600084815260026020818152604092839020835160e08101855281546001600160a01b0390811682526001830154811682850152938201548416818601526003820154606082015260048201546080820152600582015460a08201528451808601909552600682015485526007909101549184019190915260c0810192909252815116610896576040516309e4397760e11b815260040160405180910390fd5b60007f00000000000000000000000000000000000000000000000000000000000000007fa10cd4cb00add4d4726811705a7c4165b449456352c3bc9ba4801838090d97ea878787600001518860200151600160008154809291906108f990610e86565b909155506040805160208101979097528601949094526060850192909252608084015260a083015260c082015260e0016040516020818303038152906040528051906020012060405160200161096692919061190160f01b81526002810192909252602282015260420190565b6040516020818303038152906040528051906020012090506000600182856000015186602001518760400151604051600081526020016040526040516109c8949392919093845260ff9290921660208401526040830152606082015260800190565b6020604051602081039080840390855afa1580156109ea573d6000803e3d6000fd5b5050604051601f19015184519092506001600160a01b0316331490508015610a275750806001600160a01b031683602001516001600160a01b0316145b158015610a625750806001600160a01b031683600001516001600160a01b0316148015610a60575060208301516001600160a01b031633145b155b15610a7f576040516282b42960e81b815260040160405180910390fd5b867f804a32f2b422da3d6a3533b7f48c20f831059daf172c15cbc70d1343605789af8787604051610ab1929190610e9f565b60405180910390a250505060009384525060026020908152604090932060058101929092558051600683015590910151600790910155565b80516000904311610afc57506000919050565b8160200151431015610b145781516106559043610dc3565b815160208301516106559190610dc3565b6001600160a01b0381168114610b3a57600080fd5b50565b600060408284031215610b4f57600080fd5b6040516040810181811067ffffffffffffffff82111715610b8057634e487b7160e01b600052604160045260246000fd5b604052823581526020928301359281019290925250919050565b60008060008060a08587031215610bb057600080fd5b8435610bbb81610b25565b935060208501359250610bd18660408701610b3d565b9396929550929360800135925050565b600060208284031215610bf357600080fd5b5035919050565b60008060408385031215610c0d57600080fd5b50508035926020909101359150565b60008060408385031215610c2f57600080fd5b823591506020830135610c4181610b25565b809150509250929050565b600080600080600060c08688031215610c6457600080fd5b8535610c6f81610b25565b94506020860135610c7f81610b25565b935060408601359250610c958760608801610b3d565b9497939650919460a0013592915050565b6001600160a01b038881168252878116602083015286166040820152606081018590526080810184905260a081018390526101008101610cf360c083018480518252602090810151910152565b98975050505050505050565b60008060008084860360e0811215610d1657600080fd5b8535945060208601359350610d2e8760408801610b3d565b92506060607f1982011215610d4257600080fd5b506040516060810181811067ffffffffffffffff82111715610d7457634e487b7160e01b600052604160045260246000fd5b604052608086013560ff81168114610d8b57600080fd5b815260a0860135602082015260c0909501356040860152509194909350909190565b634e487b7160e01b600052601160045260246000fd5b8181038181111561065557610655610dad565b600060208284031215610de857600080fd5b81518015158114610df857600080fd5b9392505050565b808202811582820484141761065557610655610dad565b60006101008201905060018060a01b0380845116835280602085015116602084015280604085015116604084015250606083015160608301526080830151608083015260a083015160a083015260c0830151610e7f60c084018280518252602090810151910152565b5092915050565b600060018201610e9857610e98610dad565b5060010190565b82815260608101610df860208301848051825260209081015191015256fea26469706673582212209af3957418617d5606bbf9b2cbf2382ece566c2c1e6a8bd5e1a57a29bcae488564736f6c63430008120033",
    "linkReferences": {}
  },
  "methodIdentifiers": {
    "UPDATE_DETAILS_HASH()": "1d12189b",
    "balanceOf(uint256,address)": "3656eec2",
    "domainSeparator()": "f698da25",
    "getStream(uint256)": "894e9a0d",
    "nonce()": "affed0e0",
    "refuel(uint256,uint256)": "344c8e43",
    "refund(uint256)": "278ecde1",
    "streamEth(address,uint256,(uint256,uint256),uint256)": "1463caa5",
    "streamTo(address,address,uint256,(uint256,uint256),uint256)": "4a35de23",
    "updateDetails(uint256,uint256,(uint256,uint256),(uint8,bytes32,bytes32))": "9b386933",
    "withdraw(uint256)": "2e1a7d4d"
  },
  "id": 1
}