{
  "abi": [
    {
      "inputs": [
        {
          "internalType": "address",
          "name": "_owner",
          "type": "address"
        }
      ],
      "stateMutability": "nonpayable",
      "type": "constructor"
    },
    {
      "anonymous": false,
      "inputs": [
        {
          "indexed": false,
          "internalType": "address",
          "name": "greetingSetter",
          "type": "address"
        },
        {
          "indexed": false,
          "internalType": "string",
          "name": "newGreeting",
          "type": "string"
        },
        {
          "indexed": false,
          "internalType": "bool",
          "name": "premium",
          "type": "bool"
        },
        {
          "indexed": false,
          "internalType": "uint256",
          "name": "value",
          "type": "uint256"
        }
      ],
      "name": "GreetingChange",
      "type": "event"
    },
    {
      "inputs": [],
      "name": "greeting",
      "outputs": [
        {
          "internalType": "string",
          "name": "",
          "type": "string"
        }
      ],
      "stateMutability": "view",
      "type": "function"
    },
    {
      "inputs": [],
      "name": "owner",
      "outputs": [
        {
          "internalType": "address",
          "name": "",
          "type": "address"
        }
      ],
      "stateMutability": "view",
      "type": "function"
    },
    {
      "inputs": [],
      "name": "premium",
      "outputs": [
        {
          "internalType": "bool",
          "name": "",
          "type": "bool"
        }
      ],
      "stateMutability": "view",
      "type": "function"
    },
    {
      "inputs": [
        {
          "internalType": "string",
          "name": "_newGreeting",
          "type": "string"
        }
      ],
      "name": "setGreeting",
      "outputs": [],
      "stateMutability": "payable",
      "type": "function"
    },
    {
      "inputs": [],
      "name": "totalCounter",
      "outputs": [
        {
          "internalType": "uint256",
          "name": "",
          "type": "uint256"
        }
      ],
      "stateMutability": "view",
      "type": "function"
    },
    {
      "inputs": [
        {
          "internalType": "address",
          "name": "",
          "type": "address"
        }
      ],
      "name": "userGreetingCounter",
      "outputs": [
        {
          "internalType": "uint256",
          "name": "",
          "type": "uint256"
        }
      ],
      "stateMutability": "view",
      "type": "function"
    },
    {
      "inputs": [],
      "name": "withdraw",
      "outputs": [],
      "stateMutability": "nonpayable",
      "type": "function"
    },
    {
      "stateMutability": "payable",
      "type": "receive"
    }
  ],
  "bytecode": {
    "object": "0x60e0604052601c60a09081527f4275696c64696e6720556e73746f707061626c6520417070732121210000000060c05260009061003c9082610127565b506001805460ff19169055600060025534801561005857600080fd5b5060405161096b38038061096b833981016040819052610077916101e6565b6001600160a01b0316608052610216565b634e487b7160e01b600052604160045260246000fd5b600181811c908216806100b257607f821691505b6020821081036100d257634e487b7160e01b600052602260045260246000fd5b50919050565b601f82111561012257600081815260208120601f850160051c810160208610156100ff5750805b601f850160051c820191505b8181101561011e5782815560010161010b565b5050505b505050565b81516001600160401b0381111561014057610140610088565b6101548161014e845461009e565b846100d8565b602080601f83116001811461018957600084156101715750858301515b600019600386901b1c1916600185901b17855561011e565b600085815260208120601f198616915b828110156101b857888601518255948401946001909101908401610199565b50858210156101d65787850151600019600388901b60f8161c191681555b5050505050600190811b01905550565b6000602082840312156101f857600080fd5b81516001600160a01b038116811461020f57600080fd5b9392505050565b60805161072d61023e6000396000818160a9015281816101a30152610209015261072d6000f3fe6080604052600436106100745760003560e01c8063a41368621161004e578063a41368621461010c578063cea49c3c1461011f578063e0a73a931461014c578063ef690cc01461017657600080fd5b80633ccfd60b146100805780638da5cb5b1461009757806397feba9d146100e857600080fd5b3661007b57005b600080fd5b34801561008c57600080fd5b50610095610198565b005b3480156100a357600080fd5b506100cb7f000000000000000000000000000000000000000000000000000000000000000081565b6040516001600160a01b0390911681526020015b60405180910390f35b3480156100f457600080fd5b506100fe60025481565b6040519081526020016100df565b61009561011a366004610416565b6102c2565b34801561012b57600080fd5b506100fe61013a3660046104c7565b60036020526000908152604090205481565b34801561015857600080fd5b506001546101669060ff1681565b60405190151581526020016100df565b34801561018257600080fd5b5061018b610372565b6040516100df919061053d565b336001600160a01b037f000000000000000000000000000000000000000000000000000000000000000016146102055760405162461bcd60e51b815260206004820152600d60248201526c2737ba103a34329027bbb732b960991b60448201526064015b60405180910390fd5b60007f00000000000000000000000000000000000000000000000000000000000000006001600160a01b03164760405160006040518083038185875af1925050503d8060008114610272576040519150601f19603f3d011682016040523d82523d6000602084013e610277565b606091505b50509050806102bf5760405162461bcd60e51b81526020600482015260146024820152732330b4b632b2103a379039b2b7321022ba3432b960611b60448201526064016101fc565b50565b60006102ce82826105d9565b506001600260008282546102e29190610699565b9091555050336000908152600360205260408120805460019290610307908490610699565b90915550503415610323576001805460ff19168117905561032e565b6001805460ff191690555b7f94cbd7e04dca26a7667654f6448b2ca0a40fec602118dc5fd8c82b9cf3c645ad338260003411600060405161036794939291906106c0565b60405180910390a150565b6000805461037f90610550565b80601f01602080910402602001604051908101604052809291908181526020018280546103ab90610550565b80156103f85780601f106103cd576101008083540402835291602001916103f8565b820191906000526020600020905b8154815290600101906020018083116103db57829003601f168201915b505050505081565b634e487b7160e01b600052604160045260246000fd5b60006020828403121561042857600080fd5b813567ffffffffffffffff8082111561044057600080fd5b818401915084601f83011261045457600080fd5b81358181111561046657610466610400565b604051601f8201601f19908116603f0116810190838211818310171561048e5761048e610400565b816040528281528760208487010111156104a757600080fd5b826020860160208301376000928101602001929092525095945050505050565b6000602082840312156104d957600080fd5b81356001600160a01b03811681146104f057600080fd5b9392505050565b6000815180845260005b8181101561051d57602081850181015186830182015201610501565b506000602082860101526020601f19601f83011685010191505092915050565b6020815260006104f060208301846104f7565b600181811c9082168061056457607f821691505b60208210810361058457634e487b7160e01b600052602260045260246000fd5b50919050565b601f8211156105d457600081815260208120601f850160051c810160208610156105b15750805b601f850160051c820191505b818110156105d0578281556001016105bd565b5050505b505050565b815167ffffffffffffffff8111156105f3576105f3610400565b610607816106018454610550565b8461058a565b602080601f83116001811461063c57600084156106245750858301515b600019600386901b1c1916600185901b1785556105d0565b600085815260208120601f198616915b8281101561066b5788860151825594840194600190910190840161064c565b50858210156106895787850151600019600388901b60f8161c191681555b5050505050600190811b01905550565b808201808211156106ba57634e487b7160e01b600052601160045260246000fd5b92915050565b6001600160a01b03851681526080602082018190526000906106e4908301866104f7565b931515604083015250606001529291505056fea264697066735822122079c4c48e85328541253531ad94ade7ce6e6940de4b62c25051c8d676fc96296a64736f6c63430008120033",
    "linkReferences": {}
  },
  "methodIdentifiers": {
    "greeting()": "ef690cc0",
    "owner()": "8da5cb5b",
    "premium()": "e0a73a93",
    "setGreeting(string)": "a4136862",
    "totalCounter()": "97feba9d",
    "userGreetingCounter(address)": "cea49c3c",
    "withdraw()": "3ccfd60b"
  },
  "id": 2
}